:020000040800F2
:10000000001000206D370008B5370008B53700082C
:10001000B5370008B5370008B53700080000000004
:10002000000000000000000000000000B5370008DC
:10003000B537000800000000B53700086D31000832
:10004000B537000800000000B5370008B5370008D4
:10005000B5370008B5370008B5370008B5370008D0
:1000600000000000B5370008B5370008B5370008B4
:10007000B5370008B5370008B537000800000000A4
:10008000B5370008B537000800000000B537000894
:10009000B5370008B5370008B5370008B537000890
:1000A000B5370008B5370008B53700083D2E000801
:1000B000B5370008B537000800000000B537000864
:1000C00010B5064C2378002B07D1054B002B02D02E
:1000D000044800E000BF0123237010BD400400204D
:1000E000000000005C3A0008084B10B5002B03D05C
:1000F0000749084800E000BF07480368002B00D10B
:1001000010BD064B002BFBD09847F9E7000000001C
:10011000440400205C3A0008400400200000000075
:10012000002243088B4274D303098B425FD3030A36
:100130008B4244D3030B8B4228D3030C8B420DD349
:10014000FF22090212BA030C8B4202D312120902D7
:1001500065D0030B8B4219D300E0090AC30B8B4215
:1001600001D3CB03C01A5241830B8B4201D38B03C3
:10017000C01A5241430B8B4201D34B03C01A524168
:10018000030B8B4201D30B03C01A5241C30A8B42AB
:1001900001D3CB02C01A5241830A8B4201D38B0296
:1001A000C01A5241430A8B4201D34B02C01A52413A
:1001B000030A8B4201D30B02C01A5241CDD2C309AC
:1001C0008B4201D3CB01C01A524183098B4201D328
:1001D0008B01C01A524143098B4201D34B01C01A13
:1001E000524103098B4201D30B01C01A5241C3088B
:1001F0008B4201D3CB00C01A524183088B4201D3FA
:100200008B00C01A524143088B4201D34B00C01AE5
:100210005241411A00D20146524110467047FFE751
:1002200001B5002000F006F802BDC0460029F7D055
:1002300076E770477047C04670B500220C4B04004B
:100240000D0000F087FE002804D12000290000F0F6
:10025000DFFD70BD064B00222000290000F084FA6B
:1002600000F0D6FD80231B069C466044F1E7C046A3
:100270000000E041F0B55F4656464D464446F0B4B6
:100280000D0399464E002B0B87B00700924680461F
:100290009B46760DCC0F002E69D06D4B9E4235D01B
:1002A0005B468022DD001204430F13432B439B4621
:1002B000C3009846674B00279C4600236644019381
:1002C0004A4615035000D20F53462D0B400D914660
:1002D00000D176E05E4A90426CD080225B0F12041F
:1002E00013435C4AED0094461D4353460022DB0055
:1002F000604449463618701C6140029017430F2F26
:1003000000D9AFE05448BF00C759BF465B461F4302
:1003100000D088E000239B469846023308270193CB
:10032000CEE74946022A6AD0032A00D109E2012A0F
:1003300000D0BBE111400022002300259046CCB242
:1003400000212D030A0D12052D0B1543434A1B05F1
:1003500015401D436D00E4076D0825434046290004
:1003600007B03CBC90469946A246AB46F0BD03435D
:1003700052D05B46002B00D18AE1584600F0F4FDD4
:1003800003000B3B1C2B00DD7BE11D22D31A3A003E
:1003900001005D46DA4008398D4013008F402B4341
:1003A0009B46B8462E4B00279C460023604446429D
:1003B000019385E752462A432CD1002500230222CF
:1003C00097E752462A4321D0002D00D154E128005E
:1003D00000F0CAFD03000B3B1C2B00DD46E11D2194
:1003E000CB1A51460200D9405346083A95409340F3
:1003F0000D431B4A944660444042002279E70124A1
:1004000000220C40124B0025904699E7002500235E
:1004100001226EE703226CE700239B4698460133D6
:10042000042701934CE703230C27019348E700239B
:100430008025984600242D03054B81E75D46434601
:10044000019A6FE75D4643462100019A6AE7C0467C
:10045000FF07000001FCFFFFE43B0008FFFF0F80E7
:10046000F30300004246120C91461A0C9446424691
:1004700017044A461B041B0C5A43604690464A46E2
:1004800042431000039262461C003F0C7A437C43B7
:1004900042440192220C9246019A5244904506D958
:1004A0008246802040028046C24450460390100C91
:1004B000049048462404240C1204121905922A0CB4
:1004C0002D042D0C68432C00824648467C43504343
:1004D0008146200C8046574357444744BA4503D9C8
:1004E000802040028046C144380C3F04B84648444E
:1004F0002404240C01900498A044404404905846DD
:10050000000C814658460404200C824607004846E9
:100510005F434C46434360466043644683465046CF
:100520004443380C8446E4186444A34203D980232E
:100530005B029C46E34448463F04230C3F0C2404E2
:10054000E419574668436F4384464D465046554329
:100550004243380C814662444A445B44944503D983
:10056000802040028446654403983F0483460498F3
:100570003F0C8446E344C345804140428246100418
:1005800084460198674484466744A344BC46A34517
:10059000A4419946D44464428742BF41D445804136
:1005A000E144A04699459B417F424042C8440743ED
:1005B000120CBA18A045A4415F423B006442234399
:1005C000D71843467D19DB0D6D021D435B465A0269
:1005D000059B1A43531E9A415B46DB0D1A43434663
:1005E0005B021343EA0107D501225C081340234351
:1005F000EA07029E13436D08574AB218002A4BDDE2
:10060000580709D00F201840042805D0181D98421B
:100610009B415B42ED180300E80104D54F4A1540A9
:100620008022D200B2184E48824200DDE7E6012463
:10063000DB08680718436D02530580462D0B5B0DE0
:100640000C407DE6802259461203114208D0154223
:1006500006D115432D0398462D0B4C46414B6FE6B2
:100660005D4615432D032D0B3E4B69E603005546B1
:10067000283B9D400023BCE6504600F075FC20302E
:10068000A8E60300283B9F400023BB46984689E626
:1006900000F06AFC203073E60124A61A382E07DD2C
:1006A00000220C4000230025904649E6029EA3E765
:1006B0001F2E20DC20222C001800921BF0409440BA
:1006C00093400443581E83411C43F540630709D0FF
:1006D0000F232340042B05D023001C1D9C42924174
:1006E0005242AD182B021FD5012400220C400123D9
:1006F0000025904624E61F202C004042821AD44058
:10070000202E1CD04022961BB5402B43581E8341FF
:100710000720234318400025002809D00F22002578
:100720001A401C00042AD8D1230068076D022D0B43
:100730000124DB08034398460C40002300E6002513
:10074000E3E780220124120315432D0398462D0B65
:100750000C40044BF4E5C046FF030000FFFFFFFE22
:10076000FE070000FF070000F0B557464E4645461D
:10077000E0B40E001100F20F9246C500420F1803BC
:1007800037037400400A4E0F7F0A3043CF4E1743A1
:100790005A00640D520DDB0FC900B24200D1E5E0F2
:1007A00001267340A61AB446534500D1AFE0002E8F
:1007B00000DC0DE1002A3AD103000B4300D0E4E055
:1007C0006B0709D00F232B40042B05D02B1DAB4208
:1007D000AD416D427F191D003B0200D488E0BB4B48
:1007E00001349C4200D110E13A00B94B51461A4005
:1007F00001235007ED08520264050543120B640DF6
:100800000B400021280012030D0D120B64052D056D
:1008100015436208AF4CDB072C40144364006408A6
:100820001C4321001CBC90469946A246F0BDA74B34
:100830009C42C5D080231B0418436346382B00DD3F
:10084000FDE01F2B00DD30E1624620239B1A0200F1
:100850009A40664690460A009940F24046464B1E32
:1008600099413243114363460200DA40691A8D42CE
:100870009B410D00BA1A5B42D71A3B0235D57A026A
:10088000530A98464346002B00D1C4E0404600F08E
:100890006BFB0300083B1F2B00DDC5E02022290075
:1008A000D21A4746D1409F400A009D403A439C429D
:1008B00000DDC0E01C1B631C1F2B00DDE4E02021D9
:1008C00014002800C91AD8408C408D400443DA40F7
:1008D000681E854117002543002471E742466346A0
:1008E0001A4300D14CE2674645466B0700D069E7E2
:1008F000012351467807ED08FA080B400543734978
:100900008C4238D012036405120B640D79E7002E77
:1009100000DC9AE0002A47D06C4A944200D14FE7AD
:100920008022120410436246382A00DC08E10143A9
:10093000481E81410022C9B24919D219A942BF41BA
:100940000D007F42BF183A0200D442E15F4A0134F1
:10095000944200D14EE101205D4A69083A402840A6
:100960000843D507054357089A4629E706000E4372
:1009700000D017E714E72900114300D1F9E18021E5
:1009800009030A431203120B3BE701235B4298461B
:10099000C4446346002B72D1691A8D429B413F1AB1
:1009A0005B42FF1A0D0068E702000A4300D107E727
:1009B000012252429046C4446246002A00D0E6E03A
:1009C0006918A942B6413F187642F7190D00BAE7F7
:1009D000002E00D080E0621C5205520D012A00DC7E
:1009E000F9E06A1A91464D45B6413A1A7642921B91
:1009F0009046120200D499E04D1BA9428941C71BC1
:100A000049427A1A90469A463CE75246012300250D
:100A100013400022F5E6280000F0A6FA203003007B
:100A2000083B1F2B00DC39E72A00283882400025CC
:100A30009C4200DC3EE7264FE41A1740C0E6014323
:100A4000481E81410022C9B210E7002E00D0F1E01B
:100A5000621C94465205520D012A00DCA0E01B4A9C
:100A6000944500D1C5E06918A94292413F1852420D
:100A7000D2194908D5070D4357086446A0E6134B21
:100A80009C4200D0D9E69BE611001F3CE1400C00DF
:100A9000202B00D180E04021CB1A9A4015436A1EDA
:100AA00095410027254300241FE763460200203BB1
:100AB000DA406346202B71D0402366469B1B98404A
:100AC0000143481E814111430022CFE6FF07000089
:100AD000FFFF7FFFFFFF0F80002C48D0CA4CA242CF
:100AE00000D1A2E07442A1468024240427434C464E
:100AF000382C00DDDBE01F2C00DD44E14E462024D5
:100B0000A41B3E00A640A246B0464C462E00E6403E
:100B1000B4464646644626435446A5406C1EA5414D
:100B200034002C434D46EF400D1B28E04A46434617
:100B30004D461A4300D0A5E6002300240025DEE63A
:100B40001F2A5ADC66462022921B060096409146D8
:100B5000B04662460E00D640424616434A46914091
:100B60004A1E9141020060463143C240E4E63C0027
:100B70002C435AD0F443A146002C52D14D1BA9421C
:100B80008941C71B49427F1A14009A4675E69E4A5E
:100B9000944200D0C7E613E600227FE700208FE7EB
:100BA000002C00D0C8E03B002B4300D10FE1030034
:100BB0000B4300D104E66918A9429B413F185B42F0
:100BC000DF193B0200D41AE1904B0D001F40644630
:100BD000F6E59A4689E63A002A43002C5CD1002AC1
:100BE00075D102000A4300D1CAE007000D009A4601
:100BF000E6E564460022002581E662460600203ACA
:100C0000D6406246B046202A00D1B7E04022664670
:100C1000921B904001434246481E814111430022ED
:100C20008AE6794CA24200D061E707000D0014006B
:100C30009A46C5E5002C41D13C002C4378D0F443C2
:100C4000A146002C20D0704CA24271D04C46382CCA
:100C500000DDB2E01F2C00DDBCE02026341BA246E4
:100C60003C005646B4404E46A0462C00F440A446F4
:100C7000444666463443A4465446A54064466E1E28
:100C8000B54125434C46E7406D188D4289413F18D8
:100C90004942CF19140056E6002A2FD102000A4318
:100CA00000D184E007000D009A46574C88E53D438B
:100CB0006F1EBD41ECB200270D1B60E7524CA242F3
:100CC00036D0744280263604A1463743BEE7020080
:100CD0000A4300D174E56A1A90464545B6413A1A6E
:100CE0007642921B9446120200D4F7E54D1BA942AE
:100CF0008941C71B49427F1A9A4661E502000A43AF
:100D00003AD0ED087C072C438025FA082D032A42AF
:100D100008D0C7082F4205D145072C003A009A4653
:100D2000C9080C43670FD200E5001743364C47E56E
:100D300007000D00140043E53A002A4343D00200A7
:100D40000A4319D0ED087C072C438025FA082D03AF
:100D50002A4207D0C6082E4204D147073C00320081
:100D6000C9080C43D700620FE50017439A46264C8A
:100D700026E50022002544E5234C21E5002049E733
:100D800000230025BBE54C463E00203CE6404C4697
:100D9000B446202C31D040244E46A61BB7403D43DC
:100DA0006C1EA54164462C4300270D1BE7E68022FC
:100DB00000231203144C0025A1E53D436F1EBD41E5
:100DC0000027EDB260E707000D000F4CF8E40700C4
:100DD0000D00F5E44E463C00203EF440A0464C4653
:100DE000202C0ED040244E46A41BA7403D436F1E2E
:100DF000BD4144460027254346E70027CFE70D00C5
:100E000073E50027F2E7C046FF070000FFFF7FFF02
:100E10000B0330B5134D1A0B4B005B0DC90F0024AB
:100E2000AB4211DD104CA34210DC8024640322434A
:100E30000E4CE41A1F2C0CDD0D48C31ADA401300C7
:100E40005C42002900D11C00200030BD094BCC18A9
:100E5000FAE7E040084CA44663449A401300034379
:100E6000EEE7C046FE0300001D040000330400004E
:100E700013040000FFFFFF7FEDFBFFFF70B5051EB1
:100E800028D000F071F8154B154A1B1AD21A1F2AE8
:100E900016DD2C00134A0025D21A94405A0524036B
:100EA000240B520D002124030B0D240B1B0523439F
:100EB0000D4C1205234013435B002800590870BDF8
:100EC0000B212C00081AC440954024035A05240B1A
:100ED000520DE7E700220024E4E7C0461E040000AC
:100EE0003304000013040000FFFF0F808446101C31
:100EF00062468C46191C634600E0C0461FB500F0F0
:100F0000F5F8002801D40021C8421FBD10B500F03B
:100F100049F84042013010BD10B500F0E7F8002854
:100F200001DB002010BD012010BDC04610B500F04F
:100F3000DDF8002801DD002010BD012010BDC046F5
:100F400010B500F06FF8002801DC002010BD012072
:100F500010BDC04610B500F065F8002801DA002089
:100F600010BD012010BDC0461C2101231B04984266
:100F700001D3000C10391B0A984201D3000A08392A
:100F80001B09984201D30009043902A2105C4018E1
:100F90007047C04604030202010101010000000085
:100FA00000000000F0B55F4656464D464446F0B49A
:100FB0001F035C00DB0F9A46194B0E034D00C90F4F
:100FC0008046360B6D0D8B4691463F0B640D9D425E
:100FD00019D0134B9C421BD00123A54206D0180008
:100FE0003CBC90469946A246AB46F0BDBE42F6D107
:100FF000C845F4D1D34510D0002DF0D130430300C3
:101000005A1E9341EBE7310001230143E7D1E0E7AA
:101010003A430123002AE2D1DEE70023DFE7C0469E
:10102000FF070000F0B55F46444656464D46F0B413
:101030001F033C0B2C4F0E034D00A3465C0084465F
:10104000360B6D0DC90F9046640DDB0FBD422BD0E2
:10105000254FBC422ED0002D0ED1304307008146D3
:1010600078427841002C17D15F463A4314D14B4661
:101070000020002B0AD006E0002C02D15846024383
:1010800001D099421AD00123484218433CBC9046F3
:101090009946A246AB46F0BD0028F2D058425841CE
:1010A000012240421043F1E737000743D0D002202D
:1010B0004042EBE75F461743CDD0F8E7A542E2DCBC
:1010C00005DB5E45DFD808D000205E45DED2484211
:1010D0004841012340421843D8E7C445D3D80020F3
:1010E000C445F4D3D2E7C046FF070000F0B55F4621
:1010F0004D4644465646F0B41C03240BA4462F4CE0
:101100000F034D005E00C90F80463F0B6D0D8B46EF
:101110009146760DDB0FA54220D0284CA64222D066
:10112000002D12D1384344424441002E20D0002CDF
:101130000DD05C42634101245B421C4320003CBC57
:1011400090469946A246AB46F0BD002E17D05B45AF
:1011500019D05B465C4201231C43EFE739000224AF
:101160000143EBD1D9E7614602241143E6D1D7E729
:1011700061460A43DBD100240028DFD0E9E761465D
:101180000A43E4D1E5E7B54203DD01225C421443A2
:10119000D4E7B542CDDB6745DBD809D000246745ED
:1011A000CCD259464C426141012449420C43C5E727
:1011B000C845CED80024C845F3D3BFE7FF070000D9
:1011C00080B584B000AF786039600023FB607B6835
:1011D000DB68FB60FB680F4A1340FB603B681A68E2
:1011E0003B681B795B031A433B689B681A433B6867
:1011F000DB681A433B681B691A433B685B6913430E
:10120000FA681343FB607B68FA68DA60C046BD4643
:1012100004B080BD03D2FFFF80B582B000AF78601C
:101220000A00FB1C1A70FB1C1B78002B06D07B6885
:101230009B6801221A437B689A6005E07B689B6883
:1012400002221A437B689A60C046BD4602B080BD48
:1012500080B586B000AFF860B9607A6000237B612A
:10126000FB689A6ABB681A43FB689A627B6907222B
:1012700093437B617A697B6813437B61FB687A697E
:101280005A61C046BD4606B080BDC04680B586B036
:1012900000AF786000237B6100233B610023FB608B
:1012A0007B689B68802212061A437B689A607B6881
:1012B0009B68DB0FDB07FB603B6901333B613A69ED
:1012C000F0231B029A4202D0FB68002BEFD17B680F
:1012D0009B68002B03DB7B681B6C7B6101E00023B8
:1012E0007B617B691800BD4606B080BD80B582B0C9
:1012F00000AF78607B689B6804221A437B689A6021
:10130000C046BD4602B080BD80B584B000AF7860F5
:1013100039600F23FB1800221A700023BB603A6863
:1013200080235B04134005D07B689B680D4A134003
:10133000BB6002E07B681B68BB60BB683A68134017
:1013400004D00F23FB1801221A7003E00F23FB18AF
:1013500000221A700F23FB181B781800BD4604B03A
:1013600080BDC046FFFFFFFE80B584B000AF78604F
:101370000023FB60084B1B68FB60FB680122934362
:10138000FB60FA687B681343FB60034BFA681A60E2
:10139000C046BD4604B080BD0020024080B582B08A
:1013A00000AF0200FB1D1A70FB1D1B78002B06D03E
:1013B000084B084A126810210A431A6005E0054BE1
:1013C000044A126810218A431A60C046BD4602B022
:1013D00080BDC0460020024080B586B000AF786076
:1013E000396000237B6100233B610023FB60002305
:1013F0007B617CE001227B699A4013003B613B6882
:101400001B683A691340FB60FA683B699A426BD1EA
:101410003B681B79012B03D03B681B79022B34D12D
:101420007B689B687A695200032191400A00D2438D
:101430001A407B689A607B689A683B685B79190000
:101440007B695B0099400B001A437B689A607B685C
:101450009B889BB27A6992B2110001228A4092B2B3
:10146000D24392B213409AB27B689A807B689B8881
:101470009AB23B689B7919007B699BB299400B003B
:101480009BB213439AB27B689A807B681B687A6927
:101490005200032191400A00D2431A407B681A602F
:1014A0007B681A683B681B7919007B695B0099406F
:1014B0000B001A437B681A607B68DB687A6992B21A
:1014C0005200032191400A00D2431A407B68DA603F
:1014D0007B68DA683B68DB7919007B695B009940BF
:1014E0000B001A437B68DA607B6901337B617B699F
:1014F0000F2B00D87EE7C046BD4606B080BDC04673
:1015000080B584B000AF786008001100BB1C021CDD
:101510001A807B1C0A1C1A700023FB600023BB602E
:101520007B1C1A78BB1C1B8807210B409B009A4030
:101530001300FB60BB1C1B88DB089BB21800BB1CA4
:101540001B88DB089BB21A007B6808329200D358D4
:10155000BA1C128807210A4092000F2191400A000C
:10156000D2431A4011007B68020008329200D15029
:10157000BB1C1B88DB089BB21A007B6808329200F8
:10158000D258FB681343BB60BB1C1B88DB089BB2B3
:101590001A007B6808329200B968D150C046BD4637
:1015A00004B080BD80B584B000AF78600023FB60DC
:1015B0007B689B78002B39D0244A7B681B789B087A
:1015C000DBB2C0339B009B58FB607B681B781A0022
:1015D00003231340DB00FF229A401300DA43FB6829
:1015E0001340FB607B685B789B01FF221A407B689D
:1015F0001B78190003230B40DB009A401300FA68A4
:101600001343FB6011497B681B789B08DBB2C03336
:101610009B00FA685A500D4B7A68127811001F220D
:101620000A40012191400A001A600AE007497B68DC
:101630001B781A001F23134001229A4013008022B6
:101640008B50C046BD4604B080BDC04600E100E0FE
:1016500080B500AF1A4B1A4A126801210A431A607A
:10166000174B174A526817490A405A60144B144ADC
:10167000126815490A401A60114B114A1268134941
:101680000A401A600E4B0E4A526811490A405A60CD
:101690000B4B0B4AD26A0F218A43DA62084B084A85
:1016A000126B0C490A401A63054B054A526B012123
:1016B0008A435A63024B00229A60C046BD4680BDF1
:1016C000001002400CB8FF08FFFFF6FEFFFFFBFF13
:1016D000FFFFC0FFACFEF0FF80B582B000AF02009C
:1016E000FB1D1A70054B00221A70044AFB1D1B7863
:1016F0001370C046BD4602B080BDC0460210024015
:1017000090B583B000AF00233B60FB1D00221A7030
:10171000BB1D00221A70BC1D112000F083FA0300CB
:1017200023703B6801333B603A68A023DB019A4297
:1017300003D0BB1D1B78002BEDD0112000F072FAF6
:10174000031E03D0FB1D01221A7002E0FB1D0022C4
:101750001A70FB1D1B781800BD4603B090BDC04633
:1017600080B582B000AF78603960094B084A526892
:1017700008490A405A60064B054A516878683A6839
:1017800002430A435A60C046BD4602B080BDC0460F
:1017900000100240FF7FC2FF80B582B000AF0200A0
:1017A000FB1D1A70FB1D1B78002B07D0084B084A45
:1017B0001268802149040A431A6005E0044B044A78
:1017C000126804490A401A60C046BD4602B080BD96
:1017D00000100240FFFFFFFE80B584B000AF7860CC
:1017E0000023FB60084B5B68FB60FB6803229343AC
:1017F000FB60FA687B681343FB60034BFA685A602E
:10180000C046BD4604B080BD0010024080B500AFA8
:10181000044B5B68DBB20C221340DBB21800BD4600
:1018200080BDC0460010024080B584B000AF786033
:101830000023FB60084B5B68FB60FB68F02293436E
:10184000FB60FA687B681343FB60034BFA685A60DD
:10185000C046BD4604B080BD0010024080B584B0D3
:1018600000AF78600023FB60084B5B68FB60FB689F
:10187000074A1340FB60FA687B681343FB60034B25
:10188000FA685A60C046BD4604B080BD00100240F0
:10189000FFF8FFFF80B588B000AF78600023BB6120
:1018A00000237B6100233B610023FB600023BB60BE
:1018B0000023FB61A44B5B680C221340BB61BB6936
:1018C000042B0CD002D8002B05D03BE0082B0AD00B
:1018D0000C2B33D036E07B689C4A1A6036E07B687C
:1018E0009A4A1A6032E0984B5A68F0239B031340DF
:1018F0007B61954B5A68C0235B0213403B617B6957
:101900009B0C02337B613B69002B04D17B69904ABD
:101910005343FB610EE08C4BDB6A0F221340013313
:10192000FB60F9688948FEF7FBFB03001A007B693E
:101930005343FB617B68FA691A6007E07B68854A5C
:101940001A6003E07B68814A1A60C0467E4B5B6880
:10195000F0221340BB61BB691B09BB617E4ABB69B6
:10196000D3181B78DBB2BB607B681A68BB68DA40AF
:101970007B685A60744B5A68E023DB001340BB61FC
:10198000BB691B0ABB61744ABB69D3181B78DBB205
:10199000BB607B685A68BB68DA407B689A606A4BB8
:1019A0001A6B80235B00134003D17B686B4ADA60BB
:1019B00010E0654B5A688023DB01134005D17B683A
:1019C0009B685A087B68DA6004E07B689B689A0829
:1019D0007B68DA605C4B1B6B4022134003D17B6851
:1019E0005F4A1A6103E07B68802212021A61564B3B
:1019F0001B6B1022134003D17B68544A5A6103E0E9
:101A00007B681A687B685A614F4B1B6B032213403B
:101A100004D17B689A687B689A611EE04A4B1B6B15
:101A200003221340012B04D17B681A687B689A61FA
:101A300013E0454B1B6B03221340022B04D17B6840
:101A4000802212029A6108E03F4B1B6B0322134075
:101A5000032B02D17B683D4A9A613B4B1A6BC02332
:101A60009B02134004D17B689A687B68DA6127E0A7
:101A7000354B1A6BC0239B021A4080235B029A42AB
:101A800004D17B681A687B68DA6119E02E4B1A6B07
:101A9000C0239B021A4080239B029A4204D17B6898
:101AA00080221202DA610BE0274B1A6BC0239B02E3
:101AB0001A40C0239B029A4202D17B68234ADA6112
:101AC000214B1A6BC0231B03134004D17B689A6817
:101AD0007B681A6227E01C4B1A6BC0231B031A4059
:101AE0008023DB029A4204D17B681A687B681A6201
:101AF00019E0154B1A6BC0231B031A4080231B03EC
:101B00009A4204D17B68802212021A620BE00E4BCB
:101B10001A6BC0231B031A40C0231B039A4202D135
:101B20007B680A4A1A62084B1B6B8022134003D160
:101B30007B68084A5A6202E07B68FA695A62C046CA
:101B4000BD4608B080BDC0460010024000127A00B9
:101B500000093D00006CDC0200000020809FD500E1
:101B60001280000080B582B000AF78600A00FB1CD4
:101B70001A70FB1C1B78002B06D0094B084A5169D0
:101B80007A680A435A6106E0054B054A526979684A
:101B9000C9430A405A61C046BD4602B080BDC04636
:101BA0000010024080B582B000AF78600A00FB1CD4
:101BB0001A70FB1C1B78002B06D0094B084A916950
:101BC0007A680A439A6106E0054B054A926979688A
:101BD000C9430A409A61C046BD4602B080BDC046B6
:101BE0000010024080B582B000AF78600A00FB1C94
:101BF0001A70FB1C1B78002B06D0094B084AD169D0
:101C00007A680A43DA6106E0054B054AD2697968C9
:101C1000C9430A40DA61C046BD4602B080BDC04635
:101C20000010024080B586B000AF0200FB1D1A70A4
:101C30000023FB6000237B611323FB1800221A7032
:101C4000FB1D1B785B09DBB2FB60FB68002B03D13B
:101C5000184B1B687B6110E0FB68012B03D1154B0F
:101C60001B6A7B6109E0FB68022B03D1114B5B6AA5
:101C70007B6102E00F4B5B6B7B61FB1D1B781F22BE
:101C80001340FB607A69FB68DA40130001221340BD
:101C900004D01323FB1801221A7003E01323FB184E
:101CA00000221A701323FB181B781800BD4606B0DB
:101CB00080BDC0460010024080B584B000AF78609F
:101CC00039600E23FB1800221A800E23FB187A6855
:101CD00012881A807B682D4A934208D07A68802344
:101CE000DB059A4203D07B68294A934210D10E2328
:101CF000FB180E22BA18128870218A431A803B689A
:101D000059880E23FB180E22BA1812880A431A802B
:101D10007B68204A934210D00E23FB180E22BA187B
:101D200012881D490A401A803B6819890E23FB1846
:101D30000E22BA1812880A431A807B680E22BA183B
:101D400012881A803B685A687B68DA623B681A8896
:101D50007B681A857B680D4A93420BD07B680F4ADB
:101D6000934207D07B680E4A934203D07B680D4AAA
:101D7000934204D13B689B7A9AB27B681A867B684F
:101D800001229A82C046BD4604B080BD002C0140AD
:101D90000004004000100040FFFCFFFF0040014035
:101DA000004401400048014080B582B000AF786037
:101DB0007B68012252425A607B6800221A807B684D
:101DC00000221A817B6800225A807B6800229A7266
:101DD000C046BD4602B080BD80B582B000AF78601D
:101DE0000A00FB1C1A70FB1C1B78002B08D07B68B8
:101DF0001B889BB2012213439AB27B681A8007E0CA
:101E00007B681B889BB2012293439AB27B681A803D
:101E1000C046BD4602B080BD80B582B000AF7860DC
:101E20000A00FB1C1A70FB1C1B78002B0AD07B6875
:101E300044229B5A9BB20A4A134399B27B684422BC
:101E4000995209E07B6844229B5A9BB25B045B0C6D
:101E500099B27B6844229952C046BD4602B080BD0B
:101E60000080FFFF80B584B000AF786039600A233E
:101E7000FB1800221A800E23FB1800221A800C2364
:101E8000FB1800221A807B681B8C9BB201229343B3
:101E90009AB27B681A840E23FB187A68128C1A8017
:101EA0000C23FB187A6892881A800A23FB187A6838
:101EB000128B1A800A23FB180A22BA181288702182
:101EC0008A431A800A23FB180A22BA1812880321AF
:101ED0008A431A803B6819880A23FB180A22BA1819
:101EE00012880A431A800E23FB180E22BA18128891
:101EF00002218A431A803B6899890E23FB180E221F
:101F0000BA1812880A431A803B6859880E23FB18B6
:101F10000E22BA1812880A431A807B68344A934208
:101F20000BD07B68334A934207D07B68324A934296
:101F300003D07B68314A934243D10E23FB180E2213
:101F4000BA18128808218A431A803B68D9890E235F
:101F5000FB180E22BA1812880A431A800E23FB18A7
:101F60000E22BA18128804218A431A803B68998885
:101F70000E23FB180E22BA1812880A431A800C236B
:101F8000FB180C22BA1812881D490A401A800C232B
:101F9000FB180C22BA1812881A490A401A803B68AA
:101FA000198A0C23FB180C22BA1812880A431A80CB
:101FB0003B68598A0C23FB180C22BA1812880A4372
:101FC0001A807B680C22BA1812889A807B680A22D1
:101FD000BA1812881A833B689A687B685A637B68D0
:101FE0000E22BA1812881A84C046BD4604B080BDBD
:101FF000002C0140004001400044014000480140E5
:10200000FFFEFFFFFFFDFFFF80B584B000AF7860EB
:1020100039600A23FB1800221A800E23FB180022C5
:102020001A800C23FB1800221A807B681B8C9BB241
:10203000102293439AB27B681A840E23FB187A68A5
:10204000128C1A800C23FB187A6892881A800A2353
:10205000FB187A68128B1A800A23FB180A22BA1816
:10206000128851490A401A800A23FB180A22BA181A
:1020700012884E490A401A803B681B881B0299B29D
:102080000A23FB180A22BA1812880A431A800E2360
:10209000FB180E22BA18128820218A431A803B6846
:1020A0009B891B0199B20E23FB180E22BA181288C5
:1020B0000A431A803B685B881B0199B20E23FB1808
:1020C0000E22BA1812880A431A807B68384A934253
:1020D00003D07B68374A93424FD10C23FB180C2264
:1020E000BA18128834490A401A803B681B8A9B0040
:1020F00099B20C23FB180C22BA1812880A431A80D2
:102100007B682B4A934238D10E23FB180E22BA1853
:10211000128880218A431A803B68DB891B0199B2AF
:102120000E23FB180E22BA1812880A431A800E23B7
:10213000FB180E22BA18128840218A431A803B6885
:102140009B881B0199B20E23FB180E22BA18128825
:102150000A431A800C23FB180C22BA18128817495C
:102160000A401A803B685B8A9B0099B20C23FB18DB
:102170000C22BA1812880A431A807B680C22BA18FB
:1021800012889A807B680A22BA1812881A833B68E0
:102190009A687B689A637B680E22BA1812881A8440
:1021A000C046BD4604B080BDFF8FFFFFFFFCFFFFB0
:1021B000002C014000400140FFFBFFFFFFF7FFFF45
:1021C00080B584B000AF786039600A23FB18002224
:1021D0001A800E23FB1800221A800C23FB18002201
:1021E0001A807B681B8C9BB2584A13409AB27B685A
:1021F0001A840E23FB187A68128C1A800C23FB18A1
:102200007A6892881A800A23FB187A68928B1A805F
:102210000A23FB180A22BA18128870218A431A80EE
:102220000A23FB180A22BA18128803218A431A804B
:102230003B6819880A23FB180A22BA1812880A4335
:102240001A800E23FB180E22BA18128840490A4041
:102250001A803B689B891B0299B20E23FB180E2241
:10226000BA1812880A431A803B685B881B0299B22D
:102270000E23FB180E22BA1812880A431A807B68B4
:10228000344A93424BD10E23FB180E22BA181288FF
:1022900031490A401A803B68DB891B0299B20E2340
:1022A000FB180E22BA1812880A431A800E23FB1854
:1022B0000E22BA18128829490A401A803B689B8866
:1022C0001B0299B20E23FB180E22BA1812880A4379
:1022D0001A800C23FB180C22BA18128820490A40D5
:1022E0001A800C23FB180C22BA1812881D490A40C8
:1022F0001A803B681B8A1B0199B20C23FB180C2225
:10230000BA1812880A431A803B685B8A1B0199B28B
:102310000C23FB180C22BA1812880A431A807B6817
:102320000C22BA1812889A807B680A22BA1812887E
:102330009A833B689A687B68DA637B680E22BA18D6
:1023400012881A84C046BD4604B080BDFFFEFFFF60
:10235000FFFDFFFF002C0140FFF7FFFFFFFBFFFF2A
:10236000FFEFFFFFFFDFFFFF80B584B000AF7860B5
:1023700039600C23FB1800221A800A23FB18002264
:102380001A800E23FB1800221A807B681B8C9BB2DC
:102390003D4A13409AB27B681A840A23FB187A6874
:1023A000128C1A800E23FB187A6892881A800C23EC
:1023B000FB187A68928B1A800C23FB180C22BA182F
:1023C000128832490A401A800C23FB180C22BA18D2
:1023D00012882F490A401A803B681B881B0299B259
:1023E0000C23FB180C22BA1812880A431A800A23FD
:1023F000FB180A22BA18128826490A401A803B683C
:102400009B891B0399B20A23FB180A22BA18128867
:102410000A431A803B685B881B0399B20A23FB18A6
:102420000A22BA1812880A431A807B681A4A934211
:1024300012D10E23FB180E22BA18128817490A402F
:102440001A803B681B8A9B0199B20E23FB180E224F
:10245000BA1812880A431A807B680E22BA181288AA
:102460009A807B680C22BA1812889A833B689A6813
:102470007B681A647B680A22BA1812881A84C046DC
:10248000BD4604B080BDC046FFEFFFFFFF8FFFFFDA
:10249000FFFCFFFFFFDFFFFF002C0140FFBFFFFF3E
:1024A00080B590B000AF786039600023FB630023F3
:1024B000BB6300237B637B681B68012293431A0084
:1024C0007B681A607B685B687B637B6B504A134058
:1024D0007B633B689B687A6B13437B637B687A6B97
:1024E0005A607B681B687B637B6B4A4A13407B6343
:1024F0003B685A683B68DB681A433B681B691343B7
:102500007A6B13437B637B687A6B1A607B689B688A
:102510007B637B6B404A13407B633B685B697A6BF0
:1025200013437B637B687A6B9A600C23FB1818005B
:10253000FFF7B0F97B68394A934204D10C23FB18AA
:102540009B69BB6315E07B68354A934204D10C2339
:10255000FB18DB69BB630CE07B68324A934204D111
:102560000C23FB181B6ABB6303E00C23FB189B685E
:10257000BB637B681A6880231B02134014D0BB6BBB
:102580005A003B681B6819001000FDF7C9FD0300E5
:10259000FB63BB6B5A003B681B6819001000FDF71A
:1025A00045FE0B007B6310E03B681B681900B86BAD
:1025B000FDF7B6FD0300FB633B681A68BB6B1100B7
:1025C0001800FDF733FE0B007B633B681B685A085D
:1025D0007B6B9A4202D8FB6B0133FB637B681A6802
:1025E00080231B0213400AD0FB6B5B0807221340B9
:1025F0007B63FB6B0C4A1A407B6B1343FB63FB6BE7
:102600009AB27B689A81C046BD4610B080BDC04674
:10261000FFCFFFFFF3E9FFFFFFFCFFFF00380140A2
:102620000044004000480040F0FF000080B582B048
:1026300000AF78600A00FB1C1A70FB1C1B78002B93
:1026400006D07B681B6801221A437B681A6006E08B
:102650007B681B68012293431A007B681A60C0469E
:10266000BD4602B080BDC04680B582B000AF786084
:102670000A00BB1C1A80BB1C1B88DB05DB0D9AB251
:102680007B681A85C046BD4602B080BD80B582B069
:1026900000AF78607B689B8C9BB2DB05DB0D9BB247
:1026A0001800BD4602B080BD80B588B000AFF860AC
:1026B000B960FB1D1A700023BB6100237B610023FE
:1026C0003B610023FB61FB68FB61BB689BB21B0A9B
:1026D0009BB2BB61BB68FF2213407B6101227B6917
:1026E0009A4013003B61BB69022B03D1FB690433A1
:1026F000FB6105E0BB69032B02D1FB690833FB6179
:10270000FB1D1B78002B06D0FB69FA6911683A693A
:102710000A431A6006E0FB69FA6912683969C9431D
:102720000A401A60C046BD4608B080BD80B584B07E
:1027300000AF786039600F23FB1800221A707B68A5
:10274000DB693A68134004D00F23FB1801221A708A
:1027500003E00F23FB1800221A700F23FB181B78CD
:102760001800BD4604B080BD80B582B000AF78606F
:1027700039607B683A681A62C046BD4602B080BDC7
:1027800080B586B000AF786039600023FB6000231D
:102790007B610023BB601323FB1800221A703B6887
:1027A0009BB21B0A9BB2BB603B68FF2213407B615C
:1027B00001227B699A4013007B61BB68012B05D124
:1027C0007B681A687B6913407B610DE0BB68022B54
:1027D00005D17B685A687B6913407B6104E07B68A4
:1027E0009A687B6913407B613B681B0CFB6001228C
:1027F000FB689A401300FB607B68DA69FB68134052
:10280000FB607B69002B07D0FB68002B04D01323EF
:10281000FB1801221A7003E01323FB1800221A7020
:102820001323FB181B781800BD4606B080BDC046B8
:1028300080B588B000AF80239B0201211800FFF70C
:1028400091F91823FB1804221A601823FB1803229D
:102850001A711823FB180022DA711823FB180122C1
:102860005A711823FA189023DB0511001800FEF79F
:10287000B3FD80239B0001211800FFF793F93B0073
:1028800008221A603B0001221A713B0000229A6064
:102890003B000022DA603B0000221A613B0000226C
:1028A0005A613B00124A19001000FEF789FC104BD8
:1028B000072204211800FEF7CBFC0D4B1800FEF791
:1028C000E5FC0B4B01211800FEF7A6FCC046094AA7
:1028D000074B11001800FEF717FD031EF7D0044B3D
:1028E0001800FEF703FDC046BD4608B080BDC046D7
:1028F0000024014001000001B0B500AF094B1B6C82
:102900001800FEF7BBFA084A084BFDF7B3FC0300BA
:102910000C0018002100FDF78FFC03009BB218008B
:10292000BD46B0BD002401406666666666E6194095
:1029300080B584B000AF80235B0001211800FFF751
:1029400051F93B1D1800FFF72FFA3B1D00221A8199
:102950003B1D00225A803B1D0B4A5A603B1D2F2213
:102960001A803B1D00229A723B1D084A1900100074
:10297000FFF7A2F9054B01211800FFF72DFAC04619
:10298000BD4604B080BDC046FFFF000000200040EF
:1029900080B582B000AF0200BB1D1A80074B002239
:1029A0005A62C046054B5B6A9BB2BA1D12889A42B6
:1029B000F8D2C046BD4602B080BDC04600200040EF
:1029C00080B584B000AF0200BB1D1A800023FB60FD
:1029D00007E0FA239B001800FFF7DAFFFB680133DA
:1029E000FB60BB1D1A88FB689A42F2DCC046BD46FC
:1029F00004B080BDB0B582B000AF02003960FB1DED
:102A00001A70FB1D1B787F2B32D92F4CFB1D1B78B6
:102A10001A000F231340083B99082B4AFB1D1B7813
:102A200018000F230340083B9B0806339B00D31874
:102A300004331B68FA1D1278100003220240D200F2
:102A4000FF2090400200D2431A403B689B01FF20C8
:102A50001840FB1D1B781D0003232B40DB00984012
:102A600003001A438B1D9B00E31804331A6027E010
:102A7000164CFB1D1B785BB29B081449FA1D12789B
:102A800052B29208C03292005258F91D09780800DB
:102A900003210140C900FF2088400100C9431140C3
:102AA0003A689201FF201040FA1D127815000322A7
:102AB0002A40D200904002000A43C0339B001A51C2
:102AC000C046BD4602B0B0BD00ED00E000E100E050
:102AD00080B500AFBFF34F8F024B034ADA60BFF3FC
:102AE0004F8FFEE700ED00E00400FA0580B582B0EC
:102AF00000AF78607B68013B0C4A934201D9012307
:102B000010E00B4B7A68013A5A6001235B420321C3
:102B10001800FFF76FFF064B00229A60044B072254
:102B20001A6000231800BD4602B080BDFFFFFF0001
:102B300010E000E080B582B000AF00F05BFC00F078
:102B400061FD9A4B180000F0CFFD994B180000F082
:102B5000CBFD984B180000F0C7FD974B180000F014
:102B6000C3FD964B180000F0BFFD934B180000F01A
:102B7000BBFD934B180000F0B7FD8F4B180000F021
:102B8000B3FD904B1800FFF7B1FF8F4B180000F01A
:102B9000ABFD894B180000F0A7FD80239B020121AB
:102BA0001800FEF7DFFF3B0038221A603B000122CD
:102BB0001A713B0000229A713B0001225A713A00BF
:102BC0009023DB0511001800FEF706FC7F4B180070
:102BD00000F08AFD784B180000F086FD9023DB059D
:102BE00020229A61FFF7A4FE794B180000F07CFDCB
:102BF000714B180000F078FD00F056FB754B180083
:102C000000F072FD6C4B180000F06EFDFFF710FE37
:102C1000714B180000F068FD674B180000F064FD70
:102C20006E4B180000F060FD634B180000F05CFD77
:102C30009023DB0520221A85694B1B78DBB2012229
:102C40001343DAB2664B1A70FFF756FE03001A0000
:102C5000644B1A80644B1A88624B1B889BB29A4261
:102C600007D8624B1B781A00614B5B6B9A4200D10C
:102C70006DE0604B180000F037FD5F4B180000F06E
:102C800033FD5E4B180000F02FFD564B1B889BB2A6
:102C900018005B4B0A22190000F0CAFD584B1800BF
:102CA00000F022FD574B180000F01EFD564B180097
:102CB00000F01AFD504B180000F016FD534B1800A1
:102CC00000F012FD474B1B889BB2514A934206D934
:102CD000504B180000F008FD4F4B00221A70414B7A
:102CE0001B889BB24D4A93420CD93E4B1B889BB22A
:102CF000474A934206D84A4B180000F0F5FC464B71
:102D000000221A70374B1B889BB2464A93420CD95B
:102D1000344B1B889BB2414A934206D8424B180061
:102D200000F0E2FC3C4B01221A702E4B1B889BB238
:102D30003C4A934206D83D4B180000F0D5FC364B78
:102D400002221A70274B1B889AB2274B1A80274BF6
:102D50001B781A00264B5B6B9A4220D0344B18002C
:102D600000F0C2FC244B180000F0BEFC314B1800F0
:102D700000F0BAFC1E4B5B6B1800214B0A221900B5
:102D800000F056FD1E4B180000F0AEFC2A4B180058
:102D900000F0AAFC164B5B6BDAB2144B1A70FA23E4
:102DA0005B001800FFF70CFE46E7C046743A0008C7
:102DB0007C3A0008843A0008A43A0008A83A0008BF
:102DC000B43A000800530700C43A0008D43A000897
:102DD000E43A0008F43A0008043B0008183B0008F5
:102DE000610400205E040020100000206C0400201C
:102DF000002C0140343B00083C3B0008443B0008E9
:102E000064040020583B0008603B0008683B000851
:102E10009F0F00007C3B000860040020730E000040
:102E2000843B0008DD0D00008C3B0008983B000847
:102E3000C83B0008D03B0008E03B000890B583B0D9
:102E400000AFC54AC54B11001800FFF799FC031EDF
:102E500000D177E1C24B1B78DBB25A1CD1B2C04A19
:102E600011701C00BD4B1800FFF710FC0300DAB214
:102E7000BC4B1A55BB4B1B78DBB22B2B04D0B94B88
:102E80001B78DBB23D2B19D1B74B5B6B632B0FD893
:102E9000B54B5A6B01325A63B34B9A6B01329A634A
:102EA000B14BDA6B0132DA63AF4B1A6C01321A6440
:102EB000AB4B00221A70AB4B00221A70A94B1B7847
:102EC000DBB22D2B19D1A84B5B6B002B0FD0A64B7F
:102ED0005A6B013A5A63A44B9A6B013A9A63A24B1C
:102EE000DA6B013ADA63A04B1A6C013A1A649C4B14
:102EF00000221A709B4B00221A709A4B1B78DBB28F
:102F0000302B11D1984B00225A63974B00229A63C1
:102F1000954B0022DA63944B00221A64904B0022F6
:102F20001A70904B00221A708E4B1B78DBB2312B3B
:102F300011D18D4B0A225A638B4B0A229A638A4B1A
:102F40000A22DA63884B0A221A64854B00221A701F
:102F5000844B00221A70834B1B78DBB2322B11D1C9
:102F6000814B14225A63804B14229A637E4B1422A5
:102F7000DA637D4B14221A64794B00221A70794B64
:102F800000221A70774B1B78DBB2332B11D1764BB2
:102F90001E225A63744B1E229A63734B1E22DA63FD
:102FA000714B1E221A646E4B00221A706D4B002268
:102FB0001A706C4B1B78DBB2342B11D16A4B282270
:102FC0005A63694B28229A63674B2822DA63664B5F
:102FD00028221A64624B00221A70624B00221A7077
:102FE000604B1B78DBB2352B11D15F4B32225A6319
:102FF0005D4B32229A635C4B3222DA635A4B3222A7
:103000001A64574B00221A70564B00221A70554B07
:103010001B78DBB2362B11D1534B3C225A63524BF7
:103020003C229A63504B3C22DA634F4B3C221A6499
:103030004B4B00221A704B4B00221A70494B1B78E5
:10304000DBB2372B11D1484B46225A63464B4622FE
:103050009A63454B4622DA63434B46221A64404B3F
:1030600000221A703F4B00221A703E4B1B78DBB2D5
:10307000382B11D13C4B50225A633B4B50229A6360
:10308000394B5022DA63384B50221A64344B0022F9
:103090001A70344B00221A70324B1B78DBB2392B7A
:1030A00011D1314B5A225A632F4B5A229A632E4B1D
:1030B0005A22DA632C4B5A221A64294B00221A70C6
:1030C000284B00221A70274B1B78DBB22A2B11D118
:1030D000254B64225A63244B64229A63224B642258
:1030E000DA63214B64221A641D4B00221A701D4BB7
:1030F00000221A701B4B1B78DBB22F2B02D1FFF77B
:10310000E7FC05E0164B00221A70164B00221A70DD
:10311000134B1B78DBB2072B14D9114B00221A700A
:10312000FB1D00221A7009E0FB1D1B780D4A0021CF
:10313000D154FB1D1A78FB1D01321A70FB1D1B7840
:10314000072BF1D9044A054B11001800FFF70CFBBF
:10315000C046BD4603B090BD0501050000380140E2
:103160005C04002070040020002C014080B500AFFA
:103170004A4B1B78DBB20133DBB2484A191C117091
:10318000642B02D1454B00221A70454B1B78DBB2F1
:10319000002B03D19023DB0510221A85404B1B78AE
:1031A000DBB2012B0ED13D4B1B78DBB2002B09D1DA
:1031B0009023DB059022D205928A92B210214A40D8
:1031C00092B29A82364B1B78DBB2022B3BD1334B47
:1031D0001B78DBB2002B2CD0304B1B78DBB20A2BD8
:1031E00027D02E4B1B78DBB2142B22D02B4B1B7815
:1031F000DBB21E2B1DD0294B1B78DBB2282B18D03D
:10320000264B1B78DBB2322B13D0244B1B78DBB25E
:103210003C2B0ED0214B1B78DBB2462B09D01F4B29
:103220001B78DBB2502B04D01C4B1B78DBB25A2B23
:1032300009D19023DB059022D205928A92B2102107
:103240004A4092B29A82174B1B78DBB21A000123D4
:10325000134008D0114B1B78DBB2002B03D1902315
:10326000DB0508229A610F4B1B78DBB21A000123A1
:10327000134010D0094B1B78DBB2022B0BD19023EB
:10328000DB0508221A85074B1B78DBB2012293432A
:10329000DAB2044B1A70C046BD4680BD5D04002002
:1032A000600400206104002080B58AB000AF802354
:1032B0009B0201211800FEF755FC2023FB18F02289
:1032C00012011A602023FB1802221A712023FB1816
:1032D00000229A712023FB180022DA712023FB18A8
:1032E00001225A712023FA189023DB0511001800DF
:1032F000FEF772F89023DB05022208211800FEF782
:10330000FFF89023DB05022209211800FEF7F8F8E8
:103310009023DB0502220A211800FEF7F1F8902322
:10332000DB0502220B211800FEF7EAF880231B01BF
:1033300001211800FEF736FC1423FB1800221A8125
:103340001423FB1800225A801423FB1864225A60AD
:103350001423FB18EB2252001A801423FB180022BE
:103360009A721423FB18224A19001000FEF7A4FCDD
:103370001F4B01211800FEF72FFD3B0060221A8031
:103380003B0001225A803B0002229A603B0000224F
:103390009A813B00802252001A823B00144A190095
:1033A0001000FEF75FFD3B0002229A603B00104ACE
:1033B00019001000FEF728FE3B0002229A603B0035
:1033C0000B4A19001000FEF7FBFE3B0002229A6038
:1033D0003B00074A19001000FEF7C6FF044B01210D
:1033E0001800FEF719FDC046BD460AB080BDC046B4
:1033F000002C014090B583B000AFFEF729F9012001
:10340000FEF76AF9FC1DFEF77BF903002370FB1D34
:103410001B78012B25D10120FDF7A6FF0120FDF728
:10342000BDFF0020FEF700FA0020FEF717FA802308
:103430005A0380235B0211001800FEF791F9012066
:10344000FEF7AAF9C0461920FEF7ECFB031EFAD0DE
:103450000220FEF7C1F9C046FEF7D8F90300082B99
:10346000FAD1C046BD4603B090BDC04680B500AF9E
:103470001B4B1B4A126801210A431A60184B184A59
:10348000526818490A405A60154B154A1268164985
:103490000A401A60124B124A126814490A401A6014
:1034A0000F4B0F4A526812490A405A600C4B0C4AA3
:1034B000D26A0F218A43DA62094B094A126B0D491D
:1034C0000A401A63064B064A526B01218A435A632B
:1034D000034B00229A6000F00FF8C046BD4680BD45
:1034E000001002400CB8FF08FFFFF6FEFFFFFBFFD5
:1034F000FFFFC0FFACFEFFFF80B582B000AF00232E
:103500007B6000233B60314B304A126880214902C6
:103510000A431A602D4B1A6880239B0213403B60BC
:103520007B6801337B603B68002B04D17A68A02361
:10353000DB019A42EED1254B1A6880239B0213408F
:1035400002D001233B6001E000233B603B68012B7C
:1035500038D11F4B11221A601C4B1C4A52685A600A
:103560001A4B1A4A52685A60184B184A526819493D
:103570000A405A60154B154A5268882149030A438C
:103580005A60124B114A1268802149040A431A609A
:10359000C0460E4B1A6880239B041340F9D00B4B96
:1035A0000A4A526803218A435A60084B074A526804
:1035B00002210A435A60C046044B5B680C22134048
:1035C000082BF9D1C046BD4602B080BD00100240B4
:1035D00000200240FF7FC0FF80B582B000AF020034
:1035E000FB1D1A70064BFA1D127811001F220A40AB
:1035F000012191400A001A60C046BD4602B080BD5C
:1036000000E100E080B58AB000AF8023DB02012139
:103610001800FEF7A7FA8023DB0101211800FEF74E
:10362000C1FA2023FB18C0221A602023FB180222B3
:103630001A712023FB180022DA712023FB180122C3
:103640005A712023FB18254A19001000FDF7C4FE0B
:10365000224B002207211800FDF752FF0823FB1818
:10366000E12212021A600823FB1800225A61082383
:10367000FB180C221A610823FB180022DA600823C9
:10368000FB1800229A600823FB1800225A600823C6
:10369000FB18134A19001000FEF702FF3B1D1B2206
:1036A0001A703B1D00225A703B1D01229A703B1D6F
:1036B0001800FDF777FF1B20FFF78EFF0949084B25
:1036C00001221800FEF7F0FF054B01211800FEF75C
:1036D000ADFFC046BD460AB080BDC04600040048EC
:1036E000003801400501050080B584B000AF786066
:1036F0007B68180000F0A0F802000C23FB181A8069
:103700000E23FB1800221A801AE0C046164B8021B7
:103710001800FFF70BF8031EF8D00E23FB181B88C8
:103720007A68D3181B789BB20F4A19001000FEF775
:103730009BFF0E23FB181A880E23FB1801321A80F8
:103740000E23FA180C23FB1812881B889A42DCD32C
:10375000C046054B40211800FEF7E8FF031EF8D0D5
:10376000C046BD4604B080BD00380140002103E0E2
:103770000B4B5B58435004310A480B4B42189A429A
:10378000F6D30A4A02E0002313600432084B9A423F
:10379000F9D3FFF76BFE00F00FF8FFF7CBF9FEE768
:1037A0005C3C000800000020400400204004002091
:1037B000B8040020FEE7000070B50D4E0D4D00244A
:1037C000AD1BAD1005D0A300F35801349847A542B6
:1037D000F9D100F043F9084E084D0024AD1BAD109F
:1037E00005D0A300F35801349847A542F9D170BD24
:1037F000503C0008503C0008503C0008583C000871
:10380000931E10B50C00222B0ED80A2A05D00021D9
:10381000611800F045F8200010BD0028F7DA2D23CC
:1038200040420B700121F3E7002300200B70F3E707
:1038300010B5FFF7E5FF10BD10B5830727D003785B
:10384000002B26D00300032102E01A78002A1CD0A6
:1038500001330B42F9D119680F4A104C8A188A4378
:1038600022420FD1043319680B4A8A188A43224234
:1038700008D104331968084A8A188A432242F1D0D1
:1038800000E001331A78002AFBD1181A10BD03009A
:10389000E1E70020FAE7C046FFFEFEFE8080808060
:1038A000F0B5574645464E46E0B48AB090466A4663
:1038B0001D4B0D00060013CB13C213CB13C213CB49
:1038C00013C21B78EA4613704346023B2F000024C4
:1038D000222B01D924E04C46631C30004146994616
:1038E000FCF7A4FC53465B5C30003B704146FCF7A0
:1038F00017FC0137061EEED14B46E8540023002C7E
:1039000007D0EA5C295DE9542A550133013CA34202
:10391000F7DB28000AB01CBC90469946A246F0BDD1
:103920002C700020F6E7C046283C0008034B10B579
:10393000002B02D0024800F005F810BD0000000086
:103940005539000810B5010000230022002000F0C6
:103950001BF810BD70B5094B094CE41AA41009D02E
:10396000084AA518AD00ED182B68013C9847043DA6
:10397000002CF9D100F078F870BDC046583C000822
:103980005C3C0008FFFFFF3FF8B544465F465646E3
:103990004D469B462F4BF0B41C68A4235B000500EA
:1039A000E0580E00904600284BD043681F2B0DDCDA
:1039B0005C1C002D21D102339B0044601E5000206E
:1039C0003CBC90469946A246AB46F8BD224B002B24
:1039D0003CD0C820400000E000BF002836D0A42220
:1039E00000235200A15843600160A0504032835030
:1039F000043283500124002DDDD09A009146814489
:103A0000424688214F467A50C42252009046804454
:103A100042468739994012688A460A43944642468C
:103A200061461160842249465F4652008F50022D44
:103A3000C1D1020055468D32FF3211680D43156029
:103A4000B9E720004D30FF30E050AEE701204042A2
:103A5000B6E7C046243C000800000000F8B5C046A8
:103A6000F8BC08BC9E467047F8B5C046F8BC08BC18
:043A70009E467047B7
:103A74001B5B324A1B5B48001B5B3F32356C00000A
:103A840051554144524F2D434F50544552204D4FB0
:103A9400544F52204452495645522076302E31001C
:103AA4000D0A000028432920323031370D0A000066
:103AB400554154525420496E69742020204F4B00C4
:103AC4005379735469636B20496E6974204F4B00BA
:103AD4004C45445320496E6974202020204F4B00EC
:103AE40044454C415920496E69742020204F4B00B5
:103AF4004D4F544F525320496E697420204F4B0050
:103B040041444320496E697420202020204F4B0DEE
:103B14000A0000000D0A4368616E676520647574CD
:103B2400793A20272B27202F20272D270D0A000044
:103B34001B5B31353B3048001B5B324B1B5B470042
:103B44004261747465727920766F6C746167653A4A
:103B540020000000206D5620000000001B5B313661
:103B64003B3048004261747465727920636F6E64FF
:103B74006974696F6E3A200046554C4C0000000091
:103B8400474F4F44000000004C4F57205741524EBE
:103B9400494E4700435249544943414C204C4F57E6
:103BA400202D205455524E20544845204445564912
:103BB4004345204F464620494D4D454449415445CF
:103BC4004C5900001B5B31343B3048004D6F746F1F
:103BD4007220706F7765723A2000000025000000A3
:103BE40064040008240300082403000822030008D6
:103BF4003C0400083C0400082E04000822030008CA
:103C04003C0400082E0400083C04000822030008B9
:103C1400440400084404000844040008440600085E
:103C24001800002030313233343536373839616288
:103C3400636465666768696A6B6C6D6E6F707172D8
:0C3C4400737475767778797A00000000C0
:083C50002D390008E90000080D
:043C5800C10000089F
:103C5C000000000001020304010203040607080926
:103C6C0010270000000000000000000004030020EA
:103C7C006C030020D40300200000000000000000B2
:103C8C000000000000000000000000000000000028
:103C9C000000000000000000000000000000000018
:103CAC000000000000000000000000000000000008
:103CBC0000000000000000000000000000000000F8
:103CCC0000000000000000000000000000000000E8
:103CDC0000000000000000000000000000000000D8
:103CEC0000000000000000000000000000000000C8
:103CFC0000000000000000000000000000000000B8
:103D0C0000000000000000000000000000000000A7
:103D1C0001000000000000000E33CDAB34126DE644
:103D2C00ECDE05000B0000000000000000000000AD
:103D3C000000000000000000000000000000000077
:103D4C000000000000000000000000000000000067
:103D5C000000000000000000000000000000000057
:103D6C000000000000000000000000000000000047
:040000050800376D4B
:00000001FF
